:020000040000FA
:04000000B20104291C
:0800080008000408A70006111E
:100010008610861083160611861086100F3086050E
:1000200083122708B21832283A30A10098308C2069
:100030003330A60046201330A10088308C204620A3
:1000400064308B20462064308B202230A60046206E
:10005000283031200C30312006303120B2142708EE
:1000600032283214A600321C40288610033C031CA0
:10007000452845200730A100D0308C20031408000B
:100080003214FE3C0319FF288614321C3210061568
:100090000F3086052608F03986040611A60E3218A0
:1000A000462832308B2003140800B31329080319A3
:1000B000B3170530A8002730A30010306B200330A1
:1000C000A300E8306B20A30164306B20A3010A3049
:1000D0006B2024087228A2002508A1002408A00093
:1000E000C8202008A000A8030319B3132908031986
:1000F0007C282802031808002008031DB313B31B33
:100100000800303EFA2803178D0083168C130C1458
:1001100083120C08FF28A101E83EA000A109FC30D1
:10012000031C9528A00703189228A0076400A10FBC
:10013000922820189B28A01C9F2800009F280800B8
:10014000A101A301A2000230AD28A2000130AD2818
:10015000A101A301A2000430AD28A80023082102B8
:10016000031DB428220820020430031801300319AB
:1001700002302805031DFF30FF280038031DFF3023
:100180000405031DFF30FF280404031DFF30FF2872
:10019000A501A4011030A600210DA40DA50D220873
:1001A000A4022308031C230FA5020318DE2822083B
:1001B000A40723080318230FA5070310A00DA10D02
:1001C000A60BCC282008FF281030A800A101A00110
:1001D000A70CA60C031CF2282208A007230803186A
:1001E000230FA107A10CA00CA50CA40CA80BE828B8
:1001F0002408FF28840031088A0030088200831315
:100200000313831264000800FE308A010620403088
:100210008A01062002308A01062006308A01062063
:1002200012308A0106201F308A01062012308A010E
:10023000062006308A01062002308A01062000309E
:100240008A01062000308A0106201B308A01062020
:100250000E308A0106201E308A0106200E308A01E7
:1002600006201B308A01062000308A01062000305B
:100270008A0106200A308A0106201F308A010620E2
:100280000E308A01062004308A0106200E308A01D1
:1002900006201F308A0106200A308A01062000301D
:1002A0008A0106200E308A01062004308A010620C9
:1002B00004308A0106201F308A0106200E308A0190
:1002C00006200E308A0106201B308A0106200030ED
:1002D0008A01062004308A0106200E308A01062099
:1002E0000A308A0106200E308A01062004308A0175
:1002F00006200E308A0106201F308A0106200030B9
:100300008A0106201F308A01062004308A01062057
:1003100004308A0106200E308A01062015308A0139
:10032000062004308A0106200E308A0106200030A3
:100330008A01062011308A0106200E308A0106202B
:100340001F308A0106200E308A01062004308A01FF
:10035000062004308A01062004308A01062000307D
:100360008A01062008308A0106200C308A01062006
:1003700009308A0106201F308A01062009308A01CF
:1003800006200C308A01062008308A010620003041
:100390008A010620C201FF30BF008A110A125724C9
:1003A0001430C5008B178A110A12DB298B1B080039
:1003B0008A110A127D2E8A01D621831655308100BA
:1003C00083128A01D621B0308B008A01D62107180A
:1003D0004115071C41118A01D6218719C115871DB6
:1003E000C1118A01D6210030C1180130A0000030AF
:1003F0008A01A020BA000030C1190130A0000130EC
:100400008A01A020BC003A0884003C088A01BD2073
:10041000BC00BD0064003C083D048A110A120319A7
:100420001B2A8A01D621C40A8A01D6218A110A12FE
:100430005E228A01D6218A01D6210030411801307E
:10044000A00000308A01A020BA000030411901301C
:10045000A00001308A01A020BC003A0884003C08BA
:100460008A01BD20BC00BD0064003C083D048A1127
:100470000A120319422A8A01D6218A110A12F72385
:100480008A01D6218A01D62164004508003C8A11E0
:100490000A12031D4E2A8A110A1216248A01D62135
:1004A00041194114411D41108A01D621C119C114BD
:1004B000C11DC1108A01D6218A01E5298A01D621F0
:1004C00064004408043C8A110A12031D682AC4010E
:1004D0008A01D6214408553C8316810083128A0183
:1004E000D62108008A01D621FE308A0106208030FC
:1004F0004207BA00BB01BB0D3A088A0106208A01F7
:10050000D62120308A0106208A01D621FE308A01B8
:1005100006201C308A0106208A01D6214208A0004C
:1005200058308A01A020BA004208A00018308A0181
:10053000A020BC003A0884003C088A01C420BC000A
:10054000BD0064003C083D048A110A120319B62A52
:100550008A01D6211830C2028A01D6218A110A12D4
:100560006E268A01D6218A110A12BB2A8A01D62157
:10057000C20A8A01D6218A01D621FE308A010620CC
:1005800080304207BA00BB01BB0D3A088A01062041
:1005900000308A0106208A01D6218A110A12D82247
:1005A0008A01D621B80A0319B90A8A01D62108009E
:1005B0008A01D62164003F08003C8A110A12031DFB
:1005C000EA2A8A01D6210330BF008A01D6218A1186
:1005D0000A12EF2A8A01D621BF038A01D6218A0195
:1005E000D6213F08A600A7010630A200A3018A0178
:1005F000E420C0003F08A600A7010630A200A30126
:100600008A01E420BA002508BB000530BA070318A8
:10061000BB0A4008A000A1013B08A3003A088A01D8
:10062000A5208A110A12031D872B8A01D6214008B2
:100630008A018320BE008A01D621640019303E025F
:100640008A110A12031C482B8A01D6211830BE02D7
:100650008A01D62164003E0842028A110A12031D53
:10066000462B8A01D621C5038A01D621BF0A8A01F9
:10067000D62164003F08043C8A110A12031D412B55
:10068000BF018A01D62108008A01D6218A01D6211C
:100690008A01D62118304007BA00BB01BB0D3A08C9
:1006A0008A018320BE008A01D621640059303E02AF
:1006B0008A110A12031C802B8A01D6211830BE022F
:1006C0008A01D62164003E0842028A110A12031DE3
:1006D0007E2B8A01D621C5038A01D621BF0A8A0151
:1006E000D62164003F08043C8A110A12031D792BAD
:1006F000BF018A01D62108008A01D6218A01D621AC
:100700008A01D621C00A8A110A12031DFA2A8A0117
:10071000D621BF0A8A01D62164003F08043C8A1111
:100720000A12031D942BBF018A01D6213F08A6009F
:10073000A7010630A200A3018A01E420C0003F08FF
:10074000A600A7010630A200A3018A01E420BA0096
:100750002508BB000530BA070318BB0A4008A000F3
:10076000A1013B08A3003A088A01A5208A110A12B8
:10077000031DF42B8A01D62140088A018320BE0084
:100780008A01D62164003E0842028A110A12031D22
:10079000D12B8A01D621C5038A01D62108008A01FE
:1007A000D6218A01D62118304007BA00BB01BB0D03
:1007B0003A088A018320BE008A01D62164003E08DF
:1007C00042028A110A12031DED2B8A01D621C503AC
:1007D0008A01D62108008A01D6218A01D621C00AC1
:1007E0008A110A12031D9F2B8A01D62108008A0153
:1007F000D621B801B9018A01D6211430C5008A0179
:10080000D6214030C2008A01D621FF30BF008A01C4
:10081000D6218A110A1257248A01D621B0308B00C2
:100820008A01D621C3018A01D62108008A01D62176
:10083000FE308A01062001308A0106208A01D62175
:10084000FE308A010620C0308A0106208A01D621A6
:1008500050308A01062055308A0106204E308A0128
:10086000062054308A01062041308A0106204A3091
:100870008A01062045308A0106203A308A01062086
:1008800020308A010620A9013808A4003908A500F3
:100890000530B000B1018A0155208A01D621FF3010
:1008A000C5008A01D6218B018A01D62108008A0160
:1008B000D6218B018A01D621FE308A010620013023
:1008C0008A0106208A01D62164003F08FF3C8A1174
:1008D0000A12031D362D8A01D621FE308A01062018
:1008E00080308A0106208A01D62120308A01062024
:1008F00020308A01062020308A01062020308A011B
:10090000062005308A01062020308A0106200730A3
:100910008A01062020308A01062020308A01062024
:1009200003308A0106208A01D621FE308A01062082
:10093000C0308A0106208A01D62120308A01062093
:1009400003308A01062020308A01062020308A01E7
:10095000062020308A01062020308A01062020301F
:100960008A01062020308A01062020308A010620D4
:1009700020308A01062020308A01062006308A01B4
:10098000062020308A01062001308A01062002302C
:100990008A0106208A01D621C00164000630400287
:1009A0008A110A1203182E2D8A01D62140088A01C5
:1009B0008320BE008A01D621FE308A0106208030C5
:1009C0003E07BA00BB01BB0D3A088A0106208A0126
:1009D000D6213E08A000A1010730A200A3018A0190
:1009E000C8202408BA002508BB00BA0A0319BB0AAC
:1009F0003A088A0106208A01D62118304007BA0039
:100A0000BB01BB0D3A088A018320BE008A01D621B2
:100A1000FE308A01062080303E07BA00BB01BB0DC4
:100A20003A088A0106208A01D6213E08A000A101C9
:100A30000730A200A3018A01C8202408BA002508B3
:100A4000BB00BA0A0319BB0A3A088A0106208A01C8
:100A5000D621C00A8A110A12031DCD2C8A01D62183
:100A6000BF018A01D6218A110A12672E8A01D62176
:100A70003F08A600A7010630A200A3018A01E420D6
:100A8000C0003F08A600A7010630A200A3018A010A
:100A9000E420BA002508BB000530BA070318BB0ADA
:100AA0004008A000A1013B08A3003A088A01A52044
:100AB0008A110A12031DD82D8A01D62140088A0105
:100AC0008320BE008A01D621640019303E028A11BB
:100AD0000A12031C942D8A01D621FE308A010620B9
:100AE00080303E07BA00BB01BB0D1830BA0200309F
:100AF000031C013EBB023A088A0106208A01D62166
:100B00003E08A000A1010730A200A3018A01C8206D
:100B10002408BA002508BB00BA0A0319BB0A3A0820
:100B20008A0106208A01D6218A01D6211830400781
:100B3000BA00BB01BB0D3A088A018320BE008A01BE
:100B4000D621640059303E028A110A12031CD12DAD
:100B50008A01D621FE308A01062080303E07BA0085
:100B6000BB01BB0D1830BA020030031C013EBB02B2
:100B70003A088A0106208A01D6213E08A000A10178
:100B80000730A200A3018A01C8202408BA00250862
:100B9000BB00BA0A0319BB0A3A088A0106208A0177
:100BA000D6218A01D621C00A8A110A12031D412DBD
:100BB0008A01D621BF0A8A01D62164003F08043C7D
:100BC0008A110A12031DE52DBF018A01D6213F08B3
:100BD000A600A7010630A200A3018A01E420C000FC
:100BE0003F08A600A7010630A200A3018A01E42065
:100BF000BA002508BB000530BA070318BB0A400835
:100C0000A000A1013B08A3003A088A01A5208A118F
:100C10000A12031D652E8A01D62140088A0183200D
:100C2000BE008A01D621FE308A01062080303E07B0
:100C3000BA00BB01BB0D3A088A0106208A01D62101
:100C40003E08A000A1010730A200A3018A01C8202C
:100C50002408BA002508BB00BA0A0319BB0A3A08DF
:100C60008A0106208A01D62118304007BA00BB014C
:100C7000BB0D3A088A018320BE008A01D621FE30CE
:100C80008A01062080303E07BA00BB01BB0D3A083E
:100C90008A0106208A01D6213E08A000A101073062
:100CA000A200A3018A01C8202408BA002508BB00BD
:100CB000BA0A0319BB0A3A088A0106208A01D6211A
:100CC000C00A8A110A12031DF02D8A01D6218A0159
:100CD000D621B0308B008A01D62108008A01D621A6
:100CE000FE308A01062002308A0106208A01D621C0
:100CF0008A0157248A01D621080064008A110A1249
:100D00000B1D912EC30A6400153043028A110A128A
:100D1000031C8D2EC3018A0172220B118A110A1243
:100D2000C12E64008A110A12871CA22E6400413071
:100D300042028A110A12031C9F2E4030C2028A11FD
:100D40000A12C02E003007190130A00001308A01BC
:100D5000A020BA004208A00040308A01A820BC00B0
:100D60003A0884003C088A01BD20BC00BD00640034
:100D70003C083D048A110A120319C02E4030C207F4
:040D80008B100900CB
:02400E00753FFC
:10420000130017001B001D002300240013001800DA
:104210001A001E00240026001100160018001C00C1
:104220001D0023001100130014001C001E002100BB
:104230005100550059005F006100660051005500B3
:1042400056005C0061006200530054005A005F0099
:104250006000650056005800590063006500660064
:00000001FF
